:100000000C9433000C9450000C9450000C9450004D
:100010000C9450000C9450000C9450000C94500020
:100020000C9450000C9450000C9450000C94500010
:100030000C9450000C9450000C9450000C94500000
:100040000C9450000C9450000C9450000C945000F0
:100050000C945000470553055F05C105EF05FB05EE
:1000600068063C055C0611241FBECFE5D8E0DEBF64
:10007000CDBF11E0A0E6B0E0EAEAFDE002C00590E5
:100080000D92A23AB107D9F721E0A2EAB1E001C08E
:100090001D92AD3BB207E1F70E941E050C94D306FA
:1000A0000C9400009BB39F70282F207F922B9BBB4A
:1000B0009BB39E7F9BBB9BB39D7F9BBB9BB394607D
:1000C0009BBB35E33A95F1F700009BB39B7F9BBB4D
:1000D00095E39A95F1F700002BB330E1839FC001BF
:1000E0001124922F9F70892B8BBB8BB384608BBBA9
:1000F00085E38A95F1F700008BB38B7F8BBB089566
:100100009BB39F70282F207F922B9BBB9BB391604A
:100110009BBB9BB39D7F9BBB9BB394609BBB35E319
:100120003A95F1F700009BB39B7F9BBB95E39A95B3
:10013000F1F700002BB330E1839FC0011124922F0F
:100140009F70892B8BBB8BB384608BBB85E38A95B7
:10015000F1F700008BB38B7F8BBB08958FEF8ABBC9
:100160008BB38B7F8BBB8FE99FE00197F1F700C0CA
:10017000000082E30E94520087EC90E00197F1F7C3
:1001800000C0000088E20E94520087EC90E00197D6
:10019000F1F700C000008EE00E94520087EC90E072
:1001A0000197F1F700C0000081E00E9452008FE942
:1001B0009FE00197F1F700C0000086E00E94520026
:1001C00087EC90E00197F1F700C000008CE00E94FE
:1001D000520087EC90E00197F1F700C0000008950D
:1001E000CF93DF9300D0CDB7DEB790E8998390EC42
:1001F0009A83E62FF0E0319721E030E02C0F3D1F8D
:10020000E20FF31F9081890F81500E94520087EC0A
:1002100090E00197F1F700C000000F900F90DF9180
:10022000CF9108950F931F93CF938C01C0E003C02B
:100230000E948000CF5FF801EC0FF11D80818111D9
:10024000F7CFCF911F910F9108950F931F93CF93E5
:10025000DF938C01EB0165307105B1F49C0132959F
:1002600022952F7023273F702327A7E4B3E00E9435
:10027000C406969587959695879596958795805D02
:100280000E94800081E001C080E0C430D10511F0FF
:10029000813081F5980136952795369527953695C5
:1002A0002795A5ECB0E20E94C406AC015295429598
:1002B0004F7045275F7045279A01ADECBCEC0E945A
:1002C000C4069695879596958795969587959C01F2
:1002D000220F331F880F991F880F991F880F991FAE
:1002E000820F931F9A01281B390BC901805D0E9460
:1002F000800081E0C330D10511F0813051F59801C3
:100300003695279536952795ABE7B4E10E94C4064C
:10031000AC01569547959A01ADECBCEC0E94C40621
:100320009695879596958795969587959C01220F2A
:10033000331F880F991F880F991F880F991F820FED
:10034000931F9A01281B390BC901805D0E94800010
:1003500081E0C230D10511F0813041F59801ADEC5A
:10036000BCEC0E94C406AC0156954795569547953E
:10037000569547959A010E94C4069695879596953D
:100380008795969587959C01220F331F880F991F9B
:10039000880F991F880F991F820F931F9A01281B9E
:1003A000390BC901805D0E94800081E0C130D10518
:1003B00011F08130E9F49801ADECBCEC0E94C40668
:1003C0009695879596958795969587959C01220F8A
:1003D000331F880F991F880F991F880F991F820F4D
:1003E000931F9801281B390BC901805D0E94800072
:1003F00026971CF085E40E948000DF91CF911F9129
:100400000F9108958FE087BB14BA80EF83BB0895E6
:10041000CF93DF9360E03EC088B3C62FD0E041E0C9
:1004200050E0062E02C0440F551F0A94E2F7742FC5
:10043000942F9095892388BB8FEC97E00197F1F773
:1004400000C0000093B3907F903FE9F41FC0E82FF5
:10045000F0E0DF011496292F30E002C03595279592
:10046000AA95E2F720FD0DC088B3782B78BBCC0F9E
:10047000DD1FCC0FDD1FC05ADF4FEC0FFD1F808149
:100480000DC08F5F01C080E0843008F388B3482B33
:1004900048BB6F5F643008F4BFCF80E0DF91CF913D
:1004A000089584EA86BF06B607FEFDCF089584E965
:1004B00086BF089583B984E886BF06B607FEFDCFE0
:1004C000089584E886BF06B607FEFDCF83B1089580
:1004D00081B1887F08951F93CF93DF93EC01162F8E
:1004E0000E9451020E946802883009F5CE018827D7
:1004F0009770880F892F881F990B9195806A0E94A9
:100500005A020E9468028831A1F48C2F0E945A027C
:100510000E946802883279F4812F0E945A020E9458
:100520006802883251F40E94570281E007C080E0DF
:1005300005C080E003C080E001C080E0DF91CF9182
:100540001F910895EF92FF920F931F93CF93DF9324
:10055000EC018B010E9451020E946802883091F5E3
:100560007E01EE2487E0F822EE0CEF2CEE1CFF0853
:10057000F1948E2D806A0E945A020E94680288318E
:1005800019F58C2F0E945A020E9468028832F1F4F9
:100590000E9451020E9468028031D1F48E2D816A3E
:1005A0000E945A020E9468028034A1F40E946102F3
:1005B000F80180830E946802883571F40E94570216
:1005C00081E00BC080E009C080E007C080E005C08A
:1005D00080E003C080E001C080E0DF91CF911F91F7
:1005E0000F91FF90EF90089581B38C6081BB0895C7
:1005F00082B3846082BB82B3877F82BB089582B35B
:10060000886082BB82B38B7F82BB089582B38B7F6D
:1006100082BB82B3877F82BB089590BD89B988E190
:100620008AB98EE080BD08955D9BFECF8CB9089598
:10063000CF93DF93EC0103C021960E9414038881BD
:100640008111FACFDF91CF910895DC0120E030E0F5
:100650000DC0FD01E20FF31F4081FB01E20FF31F0C
:100660009081491308C000002F5F3F4F25303105AE
:1006700084F381E0089580E00895CF92DF92EF92B5
:10068000FF921F93CF93DF936C017B01142FC0E087
:10069000D0E010C0F701EC0FFD1F6081CE018C0D82
:1006A0009D1D0E946B028FE19EE40197F1F700C04F
:1006B00000002196812F90E0C817D9075CF3DF91E5
:1006C000CF911F91FF90EF90DF90CF900895CF9240
:1006D000DF92EF92FF921F93CF93DF936C017B0128
:1006E000142FC0E0D0E00FC0B7016C0F7D1FCE010A
:1006F0008C0D9D1D0E94A2028FE19EE40197F1F7EF
:1007000000C000002196812F90E0C817D90764F33C
:10071000DF91CF911F91FF90EF90DF90CF900895E0
:10072000CF93DF930E940802882361F0E091A60135
:10073000E03140F491E09E0F9093A601F0E0EA547E
:10074000FE4F80838A3291F062E082E00E94F000E6
:10075000C0E0D0E005C080E790E00E941201219641
:100760008091A60190E0C817D907ACF38091A6014B
:10077000853049F42FEF80E792E02150804090408F
:10078000E1F700C000008091A601853009F07EC02D
:100790008091BB019091BC01009759F02BC0FC01E6
:1007A000EA54FE4F2081FC01EF54FE4F2083019656
:1007B00002C080E090E0853091058CF381E00E94DA
:1007C000520061E081E00E94F00082E790E00E9428
:1007D000120162E081E00E94F0008FE991E00E9446
:1007E000120181E090E09093BC018093BB011092D4
:1007F000A6014CC081309105C9F40AC0FC01EA543D
:10080000FE4F2081FC01E455FE4F2083019602C07B
:1008100080E090E0853091058CF382E090E0909349
:10082000BC018093BB011092A60130C083309105BA
:1008300021F481E00E94520029C0049739F50AC0D2
:10084000FC01EA54FE4F2081FC01E455FE4F208359
:10085000019602C080E090E0853091058CF345E080
:1008600067EA71E081E090E00E94670367EA71E067
:100870008CEA91E00E9425038093A30185E090E03B
:100880009093BC018093BB011092A601DF91CF91A0
:1008900008950E9408022FEB3AED90E0215030407D
:1008A0009040E1F700C00000882399F38B32B9F43F
:1008B00081E00E94520061E081E00E94F00083E844
:1008C00090E00E94120162E081E00E94F0008FE956
:1008D00091E00E94120182E08093A50108958D327B
:1008E000B9F481E00E94520061E081E00E94F000D2
:1008F00083E890E00E94120162E081E00E94F00033
:100900008FE991E00E94120181E08093A501089592
:1009100081E00E94520061E081E00E94F00085E9E0
:1009200090E00E94120162E081E00E94F00087EAFC
:1009300090E00E9412011092A5012FEF30E782E0B3
:10094000215030408040E1F700C0000083E090E09B
:100950009093BC018093BB0108958091A4018230E3
:10096000F1F581E00E94520061E081E00E94F00018
:100970008FEA90E00E9412010E94F8022FEF81E1BD
:100980009AE7215080409040E1F700C0000081E0EC
:100990000E94520061E081E00E94F0008FEB90E045
:1009A0000E9412010E94FF022FEF81E19AE721507D
:1009B00080409040E1F700C000000E94060381E003
:1009C0000E94520061E081E00E94F0001092A601B6
:1009D00083E090E09093BC018093BB010895813047
:1009E00061F50E94520061E081E00E94F00081ED1B
:1009F00090E00E9412012FEF81EE94E021508040A0
:100A00009040E1F700C0000081E00E94520061E0E8
:100A100081E00E94F0008CED90E00E94120162E003
:100A200081E00E94F0008FE991E00E941201109293
:100A3000A6011092BC011092BB0108950E9402020F
:100A40000E94AE000E94F40283E390E00E940D0336
:100A50008DEE90E00E94180361E081E00E94F000BA
:100A60008CED90E00E94120162E081E00E94F000B3
:100A70008FE991E00E941201E091BB01F091BC016D
:100A8000E930F105C8F7E65DFF4F0C94BE060E9401
:100A900090032FEB8AED90E0215080409040E1F7E9
:100AA00000C00000E9CF0E949003EFEBFAED20E0D8
:100AB000E150F0402040E1F700C00000DDCF82E0CF
:100AC0008A95F1F700C06CEA71E081EB91E00E9439
:100AD0002503EFECF7E03197F1F700C0000081113A
:100AE0002CC081E00E9452008CE091E00E94120133
:100AF00062E084E00E94F0008CE191E00E9412012B
:100B0000FFEF21EE84E0F15020408040E1F700C08B
:100B1000000081E00E94520061E081E00E94F0004C
:100B20008CED90E00E94120162E081E00E94F000F2
:100B30001092BC011092BB019FCF813009F09CCF75
:100B40000E94520061E081E00E94F00084E291E0A6
:100B50000E9412019FEFE1EEF4E09150E040F0407E
:100B6000E1F700C0000045E061EB71E081E090E05A
:100B70000E943D0383E090E09093BC018093BB0111
:100B80007BCF81E00E94520061E081E00E94F00092
:100B900085E391E00E94120162E081E00E94F00092
:100BA00080E491E00E9412012FEF80E792E0215053
:100BB00080409040E1F700C000000E94490480910D
:100BC000A5018093A4011092A601882309F454CFB3
:100BD00084E090E09093BC018093BB014DCF0E94D4
:100BE0009003EFEBFAED20E0E150F0402040E1F718
:100BF00000C0000041CF8091A30181113DC08091D0
:100C0000A2018F5F8093A20161E081E00E94F00069
:100C10008BE491E00E9412018FEF90E7E2E08150B7
:100C20009040E040E1F700C0000081E00E945200E7
:100C300061E081E00E94F0008CED90E00E941201E2
:100C400062E081E00E94F0008FE991E00E941201D1
:100C50008091A201853039F486E090E09093BC0148
:100C60008093BB0109CF1092A60184E090E090939D
:100C7000BC018093BB0100CF813009F0FDCE0E9402
:100C8000520061E081E00E94F0008DE591E00E9459
:100C90001201FFEF24E38CE0F15020408040E1F7A7
:100CA00000C0000081E00E94520061E081E00E94EB
:100CB000F0000E94AD04E0CE0E9490039FEBEAEDAD
:100CC000F0E09150E040F040E1F700C00000D4CEE9
:100CD00081E00E94520061E081E00E94F0008AE61B
:100CE00091E00E94120162E081E00E94F00089E739
:100CF00091E00E9412012FEF84E39CE0215080409C
:100D00009040E1F700C0000081E00E94520061E0E5
:100D100081E00E94F00083E891E00E94120162E00D
:100D200081E00E94F00085E991E00E941201C0E09C
:100D3000D0E01AC062E081E00E94F00085E991E015
:100D40000E94120162E070E08EE190E08C1B9D0B2E
:100D50000E942501EFE7FAE126E0E150F040204053
:100D6000E1F700C000002196CE31D1051CF383E0ED
:100D700090E09093BC018093BB017ECEEE0FFF1FED
:100D80000590F491E02D0994A29FB001B39FC0019A
:100D9000A39F700D811D1124911DB29F700D811DA7
:0A0DA0001124911D0895F894FFCF6F
:100DAA002A303D2B3132332D343536583738392FE6
:100DBA002A0058696E20686179206E686170206C1B
:100DCA00616900567569206C6F6E67206E68617084
:100DDA00204D4B20004572726F723A204A75737427
:100DEA00206F6E6C7920002B206F72202D2000431B
:100DFA0075612064616E67206D6F202E2E2E004370
:100E0A0075612064616E6720646F6E67202E2E2ED6
:100E1A000044616E67207875206C790056756920E8
:100E2A006C6F6E67206E686170204D4B00554152A1
:100E3A005420496E697469616C697A65642E20531D
:100E4A00656E6420646174613A0D0A00706173739F
:100E5A00776F726473206B686F6E67006B686F7070
:100E6A002121210050617373776F7264206B686F60
:100E7A0070203C33002B203A206D6F20637561008F
:100E8A002D3A646F692070617373005061737377D0
:100E9A006F7264207361692121212121004D4B2049
:100EAA006368696E68207861630042616E206461DC
:100EBA00206E686170204D4B007361692035206C8B
:100ECA00616E00567569206C6F6E67206E6861707E
:100EDA00206C61690074726F6E6720766F6E673A74
:020EEA00000006
:00000001FF
